:1000000012C063C01EC01DC01CC01BC01AC019C0D6
:1000100018C017C016C03BC014C013C012C011C016
:1000200010C00FC00EC011241FBECFEDCDBF10E019
:10003000A0E6B0E001C01D92A436B107E1F702D0FE
:1000400063C0DECF8BEF81BB80ED87BB80B5806264
:1000500080BD85B7816085BF8BB780648BBF8BB750
:1000600080628BBF789480916000909161008F5086
:10007000964010F0949A01C09498809162009091FB
:100080006300C09710F0969AEECF9698ECCF1F922F
:100090000F920FB60F9211248F939F93B59B05C0BB
:1000A00083B7846083BF12BE09C0B59907C013BE71
:1000B00082B790E090936300809362009F918F914C
:1000C0000F900FBE0F901F9018951F920F920FB6B2
:1000D0000F9211248F939F93829B06C08EB58260EE
:1000E0008EBD1DBC1CBC09C0829907C01EBC8CB54E
:1000F0009DB590936100809360009F918F910F90C8
:0C0100000FBE0F901F901895F894FFCFD1
:00000001FF
